{
  "txid" : "201b3ee4df84c7806738df58cd926d783fe02b376f44d351e85b66ef3c20dbe2",
  "hash" : "1727a0809a009dd8ba2d9aa8998937ec01947b4c2228193c5a3f2ebd4add6b4a",
  "version" : 1,
  "size" : 338,
  "vsize" : 311,
  "weight" : 1244,
  "locktime" : 0,
  "vin" : [ {
    "coinbase" : "03877d0d122f5669614254432f5472757374706f6f6c2f2cfabe6d6d3fdbecfd646e97d92702be5ea9d2453bb723a80e771d2d03fa8008e10b06db50100000000000000010301b1b05a59f6c9c96f415fa0fbc3a0000000000",
    "txinwitness" : [ "0000000000000000000000000000000000000000000000000000000000000000" ],
    "sequence" : 4294967295
  } ],
  "vout" : [ {
    "value" : 3.1532172,
    "n" : 0,
    "scriptPubKey" : {
      "asm" : "OP_DUP OP_HASH160 fb37342f6275b13936799def06f2eb4c0f201515 OP_EQUALVERIFY OP_CHECKSIG",
      "desc" : "addr(1PuJjnF476W3zXfVYmJfGnouzFDAXakkL4)#fk03svwv",
      "hex" : "76a914fb37342f6275b13936799def06f2eb4c0f20151588ac",
      "address" : "1PuJjnF476W3zXfVYmJfGnouzFDAXakkL4",
      "type" : "pubkeyhash"
    }
  }, {
    "value" : 0.0,
    "n" : 1,
    "scriptPubKey" : {
      "asm" : "OP_RETURN 52534b424c4f434b3ace83237f4f8578f2a1412fdb3c47449a6d4a1aa59a7ec37e995cc411006ea30f",
      "desc" : "raw(6a2952534b424c4f434b3ace83237f4f8578f2a1412fdb3c47449a6d4a1aa59a7ec37e995cc411006ea30f)#57nh4csj",
      "hex" : "6a2952534b424c4f434b3ace83237f4f8578f2a1412fdb3c47449a6d4a1aa59a7ec37e995cc411006ea30f",
      "type" : "nulldata"
    }
  }, {
    "value" : 0.0,
    "n" : 2,
    "scriptPubKey" : {
      "asm" : "OP_RETURN 4558534154011508000113021b1a1f120013",
      "desc" : "raw(6a124558534154011508000113021b1a1f120013)#lu92lphx",
      "hex" : "6a124558534154011508000113021b1a1f120013",
      "type" : "nulldata"
    }
  }, {
    "value" : 0.0,
    "n" : 3,
    "scriptPubKey" : {
      "asm" : "OP_RETURN aa21a9ed9355fd3fd0688dabd58178313976cd0669ad097ef46bd2a1a28d245be91748a0",
      "desc" : "raw(6a24aa21a9ed9355fd3fd0688dabd58178313976cd0669ad097ef46bd2a1a28d245be91748a0)#4crth84z",
      "hex" : "6a24aa21a9ed9355fd3fd0688dabd58178313976cd0669ad097ef46bd2a1a28d245be91748a0",
      "type" : "nulldata"
    }
  } ],
  "hex" : "010000000001010000000000000000000000000000000000000000000000000000000000000000ffffffff5903877d0d122f5669614254432f5472757374706f6f6c2f2cfabe6d6d3fdbecfd646e97d92702be5ea9d2453bb723a80e771d2d03fa8008e10b06db50100000000000000010301b1b05a59f6c9c96f415fa0fbc3a0000000000ffffffff04786dcb12000000001976a914fb37342f6275b13936799def06f2eb4c0f20151588ac00000000000000002b6a2952534b424c4f434b3ace83237f4f8578f2a1412fdb3c47449a6d4a1aa59a7ec37e995cc411006ea30f0000000000000000146a124558534154011508000113021b1a1f1200130000000000000000266a24aa21a9ed9355fd3fd0688dabd58178313976cd0669ad097ef46bd2a1a28d245be91748a00120000000000000000000000000000000000000000000000000000000000000000000000000",
  "blockhash" : "00000000000000000000c548a1214727445027fff8fb5ef81a8746c3365e76b3",
  "confirmations" : 13,
  "time" : 1739743264,
  "blocktime" : 1739743264
}